:020000040001F9
:10B00000602F0020D5B00100EFB00100F1B00100C9
:10B010000000000000000000000000000000000030
:10B02000000000000000000000000000F3B001007C
:10B030000000000000000000F5B00100F7B00100C2
:10B0400061B30100F9B001009DB40100F9B0010045
:10B05000F9B0010000000000A5B10100F9B0010045
:10B06000F9B00100F9B00100F9B00100F9B0010038
:10B07000F9B00100F9B00100F9B00100F9B0010028
:10B08000F9B00100B5B30100F9B00100F9B0010059
:10B09000D5B30100F9B00100DDB30100F9B0010042
:10B0A000F9B00100F9B0010000000000000000004C
:10B0B0000000000000000000000000000000000090
:10B0C0000348854600F05CF80048004705CB0100C6
:10B0D000602F00200321094802680A4302600848E3
:10B0E00002680A4302600748804707480047FEE7B6
:10B0F000FEE7FEE7FEE7FEE7FEE70000240500406E
:10B1000054050040FDB30100C1B0010030B50B464D
:10B11000014600202022012409E00D46D5409D4231
:10B1200005D31D469540491B2546954040191546B7
:10B13000521E002DF1DC30BD03460B439B0703D0AC
:10B1400009E008C9121F08C0042AFAD203E00B78EC
:10B150000370401C491C521EF9D27047D2B201E064
:10B160000270401C491EFBD270470022F6E710B562
:10B1700013460A4604461946FFF7F0FF204610BD65
:10B18000064C0125064E05E0E36807CC2B430C3C3A
:10B1900098471034B442F7D3FFF796FF70E20100EE
:10B1A00090E20100F0B50024FF268BB001360125A6
:10B1B00027460694304602F09FF8002807D05448EE
:10B1C0004068284203D0304602F08EF82C43361DEA
:10B1D0006D007F1CB6B2042FECD3FF257D352846C9
:10B1E00002F08AF8002809D0284602F07DF86807A6
:10B1F000044306AA0121002002F062F8454D200711
:10B2000014D00127002627420CD04348B200111861
:10B2100008690969C004C00E8903AA58890F002A69
:10B2200000D090477F00761C042EECD3002C6DDA02
:10B2300000200890401E63E0281940300778B906C6
:10B24000890E009100214156491C49D009A9009856
:10B2500001F0CBFD002843D0B8090190009801F01F
:10B2600051F980002F580198002F02D0032802D0F6
:10B270000DE0032834D1009808ABC208410794467A
:10B28000985C490F01228A40104362469854009806
:10B2900005210907800040180721090240180068AD
:10B2A00006A98003800F0290009801F09EFD0028FF
:10B2B000029802D0022802D012E0032810D101988F
:10B2C000032808D1029802281ED00221009801F01C
:10B2D000C9FF761CF6B2002F02D001990098B8473A
:10B2E000641C042CA8D3002E10D06A460121002033
:10B2F00001F0E6FF06990098884207D0069008986A
:10B3000000263446099097E70321DFE70BB0F0BD34
:10B310000063004070260020006500408307FF2284
:10B32000DB0E9A408907090E994000280BDA0007C6
:10B33000000F0838830808489B001818C369934316
:10B340000B43C3617047830804489B001B181868AF
:10B35000904308431860704700ED00E000E400E00F
:10B36000F8B5FF20013001F048FD002401250E4E04
:10B370000E4F002807D00E4804600120B0607D7099
:10B38000002001F0DBF8FF20053001F036FD002839
:10B3900008D00748001D04600220B060BD70012085
:10B3A00001F0CCF8F8BD0000000300405C2600204E
:10B3B0000001004010B50649002008604860886020
:10B3C000C860034940390860486002F05BFC10BD6A
:10B3D0004011014010B502F0C7FB10BD10B5064882
:10B3E0004068002805D08047002801D000F0B2F95D
:10B3F00010BD01F061FA10BD9820002010B501F0D9
:10B40000A9FA002805D01F491D484860C8131E49E5
:10B4100088611E48018CC9B201290BD1828C1207A8
:10B4200008D1028D1206120F042A03D1828D120652
:10B43000120F0AD0012921D1818C09071ED1018D5B
:10B440000906090F0A2904D007E0114A0121916079
:10B45000F5E7828D1206120F05D00D290ED1808DD1
:10B460000006000F0AD10B480168012904D00A49DF
:10B47000016001680129FCD1C021416110BD0000BB
:10B48000DFFF07C000050040006C0040C00F00F067
:10B490000006004000EC06407593000010B502491C
:10B4A000024802F021FD10BDB82600200020004017
:10B4B00030B47446641E2578641CAB4200D21D462D
:10B4C000635D5B00E31830BC184702E008C8121F38
:10B4D00008C1002AFAD170477047002001E001C17D
:10B4E000121F002AFBD17047202804DA0121814075
:10B4F0000348014201D0012070470020704700003E
:10B50000FC06FFBCF7B584B00646002517881580F9
:10B5100020300290407B1446002806D03A4621464F
:10B52000059800F015FD050009D1B078002823D05A
:10B53000059886462088001DB84202D90C2007B025
:10B54000F0BD684679DF0028F9D1218803207246D2
:10B55000505420881921401C80B22080115420882A
:10B560007146401C80B2208041186846008802F075
:10B570004FFD218840182080F078002817D02188BE
:10B5800003230A46F356C91C0598B942D6D80221AE
:10B59000815421880122491C89B22180425421888A
:10B5A000491C89B2218043542088401C2080706847
:10B5B000002817D021880023C3560A46C91C0598C5
:10B5C000B942BBD80221815421880A22491C89B280
:10B5D000218042542188491C89B22180435420880B
:10B5E000401C2080308900280AD000943046019702
:10B5F000062202210830059B02F058FD05009ED16D
:10B60000308A00280AD0009430460197072203218F
:10B610001030059B02F04AFD050090D1308B0028C8
:10B620000AD0009430460197152214211830059B4A
:10B6300002F03CFD050082D1306A002806D03B466E
:10B640002246059900F0E2FF0500D8D1706A002873
:10B6500006D03B462246059901F044FB0500CED1B9
:10B660000298007B002807D03B46224630460599C9
:10B6700002F044F80500C2D13078002807D03B46DC
:10B6800022463046059901F061FB0500B7D12846F6
:10B6900055E70000174A0021535C002B01D001221E
:10B6A00003E0491C0629F7D300221349012806D0DC
:10B6B00002280BD0032810D0042818D112E04878B3
:10B6C000002803D0002A01D0012070478878002884
:10B6D00003D0002A01D002207047C878002801D08A
:10B6E000032070470879002801D00420704700200B
:10B6F00070470000312000207424002010B5012282
:10B700000221002000F0F2FD002801D0072812D10C
:10B7100007220221012000F0E9FD002801D00728BE
:10B7200009D100210A22084600F0E0FD002801D0DE
:10B73000072800D1002010BDBFF34F8F04490348F4
:10B74000C860BFF34F8F00BFFDE700000400FA059B
:10B7500000ED00E00EB50021029000916A460191D3
:10B760000148FFF7E9FF0EBD01400000C16881609C
:10B770000020704710B58268C368934203D000F080
:10B78000E1FF002010BD052010BD002906D0002AD1
:10B7900002D0531E134203D0092070470E20704779
:10B7A0000160838000218160C1600846704710B548
:10B7B0008268C3689A1A83889A4203D800F0CCFF43
:10B7C000002010BD042010BD094B5B68002B07D082
:10B7D000002A07D0002805D00068037C002B03D086
:10B7E000082070470720704741744261002070476D
:10B7F0006C200020FFB507469007002581B01E464B
:10B800001446002825D1002C23D001F02FFE30460D
:10B81000114EF0603046103005704570029981700D
:10B8200044607560357001240C487570240504600F
:10B8300003211420FFF772FD09480460094CA7603A
:10B8400003211120FFF76AFD6068B060002005B099
:10B85000F0BD0720FBE700005C20002080E200E054
:10B8600000E100E000150140FEB51F4B5B68002BB6
:10B8700030D000282ED0052901D20720FEBD436913
:10B88000002B27D0437C012B26D0002702910446B1
:10B890000025694616460D70684600F0DFF801A8DD
:10B8A00002F0EEFB002819D0012101700F4944601D
:10B8B00049688160029907614661C16068460A492A
:10B8C000007948706846007800F0E6F802F08EF9DA
:10B8D0002846FEBD0820FEBD0F46D7E76846042572
:10B8E000007800F0D9F8F3E76C2000200015014043
:10B8F00010B50849496800290AD0002808D04169D4
:10B90000002905D000210174022102F097F910BD31
:10B91000082010BD6C20002010B50548FFF726FF59
:10B92000002803D102481030FFF720FF10BD0000AF
:10B93000D426002070B50B4D0146AE780A48FFF7BB
:10B9400019FF0446002E0AD00020A870691C0122AD
:10B95000C81D01F041FB002801D0FFF7FBFE204687
:10B9600070BD00007C200020D4260020F0B5274EBA
:10B9700089B01F460D00044672601CD0A888296853
:10B9800082B22348FFF701FF002815D1A889A968D2
:10B9900082B21F481030FFF7F8FE00280CD1202299
:10B9A0001C496846FFF7C8FB60690690207C0028A8
:10B9B00004D0012103E0072009B0F0BD0021684652
:10B9C00001750777607C002800D00E206946487515
:10B9D000E0680290A0680390206801906068009081
:10B9E0000A480D4A083001F0B7FA0028E4D1B070D7
:10B9F0002068401CE0D00548083001F01BFB0349DB
:10BA00000122491CC81D01F0E7FAD5E77C2000207F
:10BA1000D426002050E2010041DE010010B50146AD
:10BA20000C48FFF7C4FE040012D10B4801F0CCFB18
:10BA300000280DD1084907480839FFF79BFE002868
:10BA400006D1054901220839034801F05DFB04468F
:10BA5000204610BDE42600208420002030B5EFF3FE
:10BA6000108172B6094A54680123002C04D0037077
:10BA7000002900D162B630BD5360054B1D68054CEE
:10BA8000254015601C6000220270F1E79020002024
:10BA900080E100E0FC06FFBC08494A68002A0CD09F
:10BAA00000280AD1EFF3108072B60A68044B1A60BE
:10BAB00000224A60002800D162B670479020002022
:10BAC00000E100E0F8B5074608680C460526411C71
:10BAD00001253602002906D0294681401948816097
:10BAE000206801F0A4FB6068411C02D0002101F035
:10BAF0008BFB3968A06989194862607D217D3A68AD
:10BB000008439119C866386806CC80194261C16043
:10BB1000207B083C012814D1A068411C02D00021E0
:10BB200001F072FBE068411C05D085400548856046
:10BB3000E06801F07CFB3A68E1689219A0689160C6
:10BB40001061F8BD00050050F0B50C4693B01F2100
:10BB50006A461180072600279180002809D0C17805
:10BB600049070DD502A9FFF7CDFC002809D102AD88
:10BB700001E000251780002C0ED0E078002802D0CC
:10BB8000304613B0F0BD01AA0AA92046FFF7BAFC5F
:10BB90000028F6D10AAA02E068460022878068469B
:10BBA0008088C3B268460088C1B2284672DFE8E7E1
:10BBB000FFB581B01E460A9F1346040047D0002BF4
:10BBC00045D0504D012028700020E87020221946F1
:10BBD0004D48FFF7B1FA00206F61C0432E61288104
:10BBE000284607211830FFF7C0FA47483C2120308B
:10BBF000FFF7BBFA4448217820300170A1788170AA
:10BC0000E178C170617841703F4A65692369556385
:10BC1000114613632031E368A268CB608A603A4919
:10BC2000E369A269CB638A63616A00291AD001467D
:10BC30003C310246483241628A60636A1B880B804D
:10BC4000616A436A898899800021436A07E00E206F
:10BC500005B0F0BD656AAD686D5C5554491C9D88A2
:10BC60008D42F7D8A16A00291CD0274A9432114688
:10BC70000C398A608162A36A9B888B80A16A836A7F
:10BC8000098819800021836A04E0A56AAD686D5CAB
:10BC90005554491C9D888D42F7D82C210A5D1A49BC
:10BCA00040310A73216A002909D016490A3101621C
:10BCB000226A52884A80216A026A09881180616872
:10BCC000002900D04160104A0E490020B3322031D3
:10BCD000C3001B1A85009B180C68401C6351082880
:10BCE000F6DB094A0020EB32030185009B188C68C3
:10BCF000401C63510828F7DB034802992030FFF706
:10BD000023FFA5E7182000207424002010B5018827
:10BD1000134C102915D0112919D01B2910D1007AE4
:10BD200000280DD1E0780521401CFFF7EFF9084607
:10BD300000F018F8002803D06169002900D0884776
:10BD400010BD817D0129FBD18088208110BD00219B
:10BD50006171808821898842F8D10120E8E70000DC
:10BD600018200020F1B53F4C88B0207800280AD078
:10BD70000898E07006A800F0F9FC06980125002854
:10BD800004D065706AE0082009B0F0BD354800278E
:10BD900007211830FFF7E9F9334E7078002802D0F8
:10BDA000E078012807D0B07800280CD0E07801288E
:10BDB00001D0022807D12169002903D0257108206C
:10BDC000884700E027710898FFF764FCE07021695C
:10BDD000002909D0032801D0042805D13078002893
:10BDE00002D06079002811D0A77118216846FFF7AA
:10BDF000BCF9684607700772E1781A480B001830E2
:10BE0000FFF756FB052E080F191D2000A57107200E
:10BE10008847EAE7A5700190684605704782078267
:10BE200013E00221A170019068460570B18941823A
:10BE30003189018209E0684601F0A8FC02E0684609
:10BE400001F0D0FCE078002803D0684673DF0028BA
:10BE50009AD12169002901D0A0788847002093E772
:10BE6000A770F6E7182000207424002070B505465E
:10BE700001461C220E48FFF75FF90E4C0026267083
:10BE80002968002906D00822201DFFF755F9201D3A
:10BE90007ADF02E00748001D7BDF002807D1401E43
:10BEA00060806670044A00210448FFF78DFC70BD75
:10BEB00040260020482000201DE0010038E201005B
:10BEC000F8B5214C0146028800261E48E589102A53
:10BED00013D01E4F112A1FD0122A2BD0502A1AD14C
:10BEE000881DC988A94216D14189022913D10C3075
:10BEF00000F0FEF800280CD112E08A880446428047
:10BF0000104808220C301831FFF716F96670002D22
:10BF100001D100F0C3FBF8BD0021C9434180467048
:10BF20003868FFF7E5FC0028F5D0A1690029F2D0B8
:10BF30008847F8BD034808220C300831FFF7FCF8A9
:10BF4000E7E70000482000204026002038E20100FA
:10BF50007CB5054608880C460930904201D90C2072
:10BF60007CBD684671DF0028FAD12188082068541A
:10BF700020881B21401C80B220802954208800A9E1
:10BF8000401C80B22080401906220131FFF7D4F80E
:10BF900020886946801D80B220800978002900D061
:10BFA000012129542088401C208000207CBD0000F5
:10BFB00010B50446FFF784FF2146064800F040F81C
:10BFC000204601F0DBF92046FFF7A0FE204600F0F6
:10BFD000F5F810BD9023002030B5184B0D46040035
:10BFE0000FCB85B003936B4607C324D0002D22D01E
:10BFF0000020C043A0822868A0610020A0752146CF
:10C00000684663DF002814D12178684681740121D5
:10C010000182A21C04A90120A0DF002809D1294621
:10C02000204601F058FA002803D12946204601F0A5
:10C0300090FE05B030BD0E20FBE700003CE20100A1
:10C0400010B500281BD0002919D00A88102A17D053
:10C05000112A17D0502A12D104468A1DC888238A73
:10C060001231984202D15389022B0FD0A3889842F3
:10C0700005D1A369002B02D052892046984710BDF4
:10C08000898801E00021C943818210BD084600F083
:10C090002FF8002800D00120A07510BD07B584B08E
:10C0A00000280DD0828A114B9A420BD0827D002A43
:10C0B00008D06A46128B142A06D9072007B000BDA3
:10C0C0000E20FBE70820F9E700220092019202927D
:10C0D000039282896B461A80039106A9029101217D
:10C0E0009970808A6946A6DFE8E70000FFFF00003C
:10C0F0004178027808021043C007C00F7047000063
:10C100000149085C70470000C8E1010005490B5C6B
:10C1100005494A6801209840034693438B601040CC
:10C12000C8607047C4E101000005005010B5034924
:10C13000085C012101F0B8F810BD0000C4E1010065
:10C1400010B50349085C002101F0AEF810BD0000F5
:10C15000C4E101000549095C05484068C840C007C2
:10C16000C00F00D00120012148407047C4E1010008
:10C170000005005010B500242046FFF7D7FF641CCF
:10C18000042CF9D310BD10B500242046FFF7D8FFCA
:10C19000641C042CF9D310BD0246002010B5C04326
:10C1A000054B00215C5C944201D1084610BD491C3E
:10C1B0000429F7D310BD0000C8E1010010B51C4CE4
:10C1C0000188606810290DD011290AD1401E6060D5
:10C1D00007D1FFF793FA002803D02168002900D087
:10C1E000884710BD00281ED100210122084600F01A
:10C1F0007DF8002801D0072811D107220221012053
:10C2000000F074F8002801D0072808D10422022188
:10C21000002000F06BF8002805D0072803D0216823
:10C22000002900D088476068401C606010BD000095
:10C230001020002010B5002000F04AF9002801D09D
:10C24000062807D1012000F043F9002801D0062874
:10C2500000D1002010BD0000F3B581B00D4601985B
:10C26000FFF79AFF0446042813D21D481D4F1E4EA7
:10C27000002D27D0012D0DD0022D0AD160002018ED
:10C28000C0194578002D04D0F168002901D0284656
:10C290008847FEBD610061187D5CCF19797800295F
:10C2A0000BD071680A2251430F4A8068921CFFF735
:10C2B000DBFA002801D10198B0700B48B978103032
:10C2C0000155DFE78068FFF713FB0748610061183D
:10C2D0001030C919005D8D78A842D3D0FEBD000092
:10C2E000CCE1010014240020FC1F002070B50023C5
:10C2F000042811D2440004190D4D012A02D101294C
:10C300000DD0002246008019094E801900290CD05A
:10C31000012906D0022906D00723184670BD0E3029
:10C32000C2B22A55F9E74270F7E78270F5E70000DC
:10C330001424002010B5054A0146127A0020D207C5
:10C3400002D0084600F004F810BD0000FC1F0020D9
:10C35000F8B55D4C054660780026002803D0002023
:10C360006070FFF707FF0120584F2B00FFF7A0F880
:10C3700018970D0D2E3D4A5F64686F686FA9777737
:10C38000777777979A9DA0A9A9950020FFF7E2FEFD
:10C3900000280AD00020FFF7C9FE022D02D1E120BB
:10C3A000C0000BE07D20400108E00020FFF7C8FE40
:10C3B000022D01D1C82001E0FF20913025706421B9
:10C3C000FEF7A4FE6168414300222BE00020FFF746
:10C3D000C1FE002805D00020FFF7A8FE192040016B
:10C3E000ECE70020FFF7ACFEE4E70020FFF7B2FE29
:10C3F000002803D00020FFF799FED3E70020FFF7C5
:10C400009FFED9E70020FFF7A5FE002803D00020FB
:10C41000FFF78CFE02E00020FFF792FE25706068B7
:10C42000410000223868FFF71FFA064635E0002079
:10C43000FFF76CFE257007E000203FE025702CE040
:10C4400060700120FFF762FE00226168EAE7607019
:10C450000120FFF75BFE606881004118E1E7786822
:10C46000FFF746FA06461120401B01D0002E03D0EC
:10C470000220FFF75BFE10E001280BD9C8214843DA
:10C480006421FEF743FE6168002241437868FFF7AC
:10C49000EBF906460220FFF753FE3046F8BDFFF7E2
:10C4A00069FECBE7FFF766FEC6E7FFF763FE04E031
:10C4B000FFF760FE0020FFF743FE0120FFF740FE7C
:10C4C000BCE7FFF760FEB9E7FC1F0020CCE10100EC
:10C4D00010B5FFF715FE032100F0B3FE002010BDDC
:10C4E00006480178412908D141788278C078120243
:10C4F0000004891808180249C8607047C02300204A
:10C50000E81F002002490918202008567047000043
:10C510007026002010B50849C8680969012904D0AF
:10C52000022905D001F088F910BD00F02BF910BDEB
:10C5300001F038F810BD0000E81F002070B5084C6D
:10C54000050009D010342168002907D00868206050
:10C55000496828468847F6E70834F4E770BD0000CC
:10C560005C260020F8B52348416800293ED00E68BB
:10C5700021494C6887688078E11B0D022D0AED1C6B
:10C58000002814D101201D4A000450601B4A403A83
:10C5900050601B49400008601A4908601A49012090
:10C5A00008602F2000F04CFC124901208870B54231
:10C5B00000D23546E81900020F4B000A40331860DC
:10C5C0000D4A5168001B091B0902090A0002000AF2
:10C5D000C91C814209D9506818602F2000F030FC36
:10C5E00001200749400480390860F8BD00F03EFF93
:10C5F000F8BD00005C200020001501404013014000
:10C6000080E200E000E100E000100140F8B50646DD
:10C61000108814468446801D0D46984201D90C208E
:10C62000F8BD32880720062AFAD31927FF01184BD4
:10C63000BA4201D99A42F3D171880629F0D3B9429E
:10C6400001D99942ECD19A4203D0994201D08A4251
:10C65000E6D805216046295420881221401C80B26A
:10C66000208029542088401C80B2208041193088C5
:10C6700001F0CEFC2188401880B2208041197088DA
:10C6800001F0C6FC2188401820800020F8BD000081
:10C69000FFFF000010B5FFF75DF810BDF8B51648B4
:10C6A00000F04AF9144D00260C3D144C002807D028
:10C6B000616900291CD001206A461070684616E0A6
:10C6C0002878002805D06169002911D068460670D5
:10C6D0000DE0687800280DD0A168094800220068A4
:10C6E000FFF7C2F8002803D0A169002900D08847CD
:10C6F0002E70F8BD6168F0E754200020402600202D
:10C7000038E2010010B50E4900230A784C78A242A5
:10C7100012D0521CD2B20A70022A00D10B700A78D1
:10C72000074B920018339A5802608868101800026C
:10C73000000A8860012010BD0360002010BD0000C9
:10C740005C200020826883881A4003689A5C0A7023
:10C750008168491C81607047C26883881A400368F9
:10C760009954C168491CC16070470000002804D07A
:10C770000349496E016000207047032070470000A4
:10C78000F426002070B5324C324D207B405D00F025
:10C7900083FD607B2E46093E805D00F075FD022022
:10C7A00000F034FB207B405D00F06EFD607B805D1F
:10C7B00000F072FD207C405D00F06EFD607C805DCD
:10C7C00000F062FD022000F021FB207C405D00F0C3
:10C7D0005BFD607C805D00F05FFD20342078405D73
:10C7E00000F05AFD6078805D00F04EFD022000F000
:10C7F0000DFB2078405D00F047FD6078805D00F023
:10C800004BFD2079405D00F047FD6079805D00F0D0
:10C810003BFD022000F0FAFA2079405D00F034FD83
:10C820006079805D00F038FD207B405D00F034FDD4
:10C83000607B805D00F028FD022000F0E7FA207B9D
:10C84000405D00F021FD607B805D00F025FD70BD46
:10C850004024002000E2010070B500240B4D01E0EF
:10C86000092C06DA285D00F0D8FC285D00F014FDE4
:10C8700005E0285D00F0D1FC285D00F005FD641C9A
:10C880000C2CEDDB00F004F870BD0000F8E10100B5
:10C8900030B5074B002007491C4619341D5C420087
:10C8A0008D54255C5218401C55701928F6DB30BD9C
:10C8B00004E2010040240020F8B51E4C2078002836
:10C8C00036D0E068002600280CD0002560780028CB
:10C8D0002ED1684652DF052806D0002806D0FEF784
:10C8E00039FF0BE00125F1E7012607E0009800F091
:10C8F000FDFA2169002901D000988847002D13D145
:10C900006078002814D1608869460880A06861DFDB
:10C91000052804D0002804D0FEF71CFF04E0012500
:10C9200002E0E168A0688847002ECFD0002DE5D056
:10C93000F8BD0000982000204188054802889142F7
:10C9400004D34088814201D80120704700207047FD
:10C950004C2000201048018CC9B2012917D1818CCC
:10C96000090714D1018D09060A0F03D1828D120621
:10C97000120F0ED0090F012903D1828D1206120F5A
:10C9800007D0032903D1808D0006000F01D00020BD
:10C990007047012070470000C00F00F0F0B5284C30
:10C9A0002146103948688B68227886469C46CF78A5
:10C9B000667836E0182353436168521CC918A3787F
:10C9C000D2B2934200D100220B78022B02D0032B6B
:10C9D00027D123E003464D68194603E0A94204D05D
:10C9E0000B46C96900291CD0F8E7002919D08B42F1
:10C9F00008D1C069002805D1124F0125BD6000256E
:10CA0000AC4601270D68C969D961002909D00B68B6
:10CA10005B190B6005E00174C06900E0002100288B
:10CA2000F9D19642C6D10649624610398A604860FB
:10CA3000CF70704501D00120F0BD0020F0BD000096
:10CA40006C20002000100140F8B52C4E04467068A0
:10CA50000025009041E0002C02D02046E46920E04F
:10CA6000264818231030017842684B43491CC9B24C
:10CA7000D21801708378994200D1057011785068FE
:10CA800001292CD1017C002929D191684160D1680C
:10CA900081601169C16051698161F178002900D01C
:10CAA00045604368B268164F991A0902090AB942EB
:10CAB00002D28268891806E0D11A09028268090A3E
:10CAC0008A4202D9511A016000E0056045600121E7
:10CAD00085600174C56101F091F8002CBBD1074855
:10CAE0001030017840788142BAD171680098814253
:10CAF00001D00120F8BD0020F8BD00005C2000201E
:10CB0000FFFF7F00A8B0FFF7A7FE00F0C3FF654955
:10CB10006348C8600023644A05211846FEF76AFE90
:10CB2000002801D0FEF716FE604A00216048FEF79B
:10CB30004BFE002801D0FEF70DFE5D49182208319A
:10CB40006846FEF7F9FAFF2101315A48069040186D
:10CB50000791099108900323574A06A96846FEF7F2
:10CB600005FF002801D0FEF7F5FD51485149406806
:10CB7000059000234822483905A800F04BFF002803
:10CB800001D0FEF7E7FD6A460121002000F02AFFF0
:10CB9000002801D0FEF7DEFD684600F019FF0028EE
:10CBA00001D0FEF7D7FD454800F008FF002801D06E
:10CBB000FEF7D0FD112069460872132240A102A899
:10CBC0007CDF002801D0FEF7C5FD00240094102171
:10CBD0006846019401803C214180FF21848091318D
:10CBE000C1807ADF002801D0FEF7B4FD39480090FB
:10CBF0002D4869467830FFF7EFF9002801D0FEF79D
:10CC0000A9FD3C2101A8FEF7B0FA02216846017196
:10CC100084710521C1713C2110A8FEF7A6FA0125F7
:10CC200010A805821F482021801D15901FA8FEF71F
:10CC30009CFA18A8C57740202390B4202490264B56
:10CC40001FAA10A9009401A8FEF7B2FF002801D086
:10CC5000FEF780FD1C216846FEF787FA0520C00319
:10CC600001900F2000040290009403216846017394
:10CC7000C481047419480590194806906846FFF766
:10CC8000F5F8002801D0FEF765FD0320FFF76AF8EC
:10CC90000090002801D0FEF75DFDFFF73BFCFCE7AC
:10CCA00055555501E81F00201823002005DD01001F
:10CCB000A4E1010018210020EDDD0100B1BF010059
:10CCC00046696E63685F4D6963726F4269745F5451
:10CCD0006573740029D301005DD301004DD40100B8
:10CCE00095C6010070B5144682880E460546208818
:10CCF000111D4118921C994201D8FE2A01D90C201D
:10CD000070BD521C32542088FF21401C80B220800C
:10CD100031542088401C80B220808119288801F07D
:10CD200077F92188401880B22080AA88002A09D08B
:10CD3000A968002908D08019FEF7FEF92088A98883
:10CD400040182080002070BD072070BDF8B50F4648
:10CD5000017814460546012902D16878002806D0DA
:10CD60002088821C9A422DD8012902D006E0072093
:10CD7000F8BD69784118891C994223D8181A801E79
:10CD800086B2684606802188B81C081869467DDF8F
:10CD90000028EDD12878022805D169460988B142DA
:10CDA00001D809210AE00821012805D16878B0429C
:10CDB00002D86A46108001E068460680684600880E
:10CDC000FE2801D90C20F8BD2288401CB8542088C8
:10CDD000401C80B22080395420886946401C208045
:10CDE0000988401820800020F8BDC20843075B0F67
:10CDF0000120895C9840084070470121890740184C
:10CE00000068002800D00120704700007D21C90083
:10CE100048430FD00849094A096800BF00BF00BF56
:10CE200000BF00BF00BF00BF00BF914200D000BFE5
:10CE30000138F2D170470000AC2000200024F4003B
:10CE400000280FD00849094A096800BF00BF00BF89
:10CE500000BF00BF00BF00BF00BF914200D000BFB5
:10CE60000138F2D170470000AC2000200024F4000B
:10CE700070B50E4C00252078002801D0852513E0E0
:10CE80000021A16061602161E1600948006801261C
:10CE9000304002D1032100F02FF800F0E7FD002818
:10CEA00001D1044886612670284670BD5C260020AA
:10CEB00000E100E00005004038B500206946087038
:10CEC0006846FEF7CBFD084C2078002801D1FFF71B
:10CED000CFFFE068401CE0600120A0706846007849
:10CEE000FEF7DAFD38BD00005C26002010B50028F2
:10CEF00001D1FFF723FB10BD8207D30EFF229A401A
:10CF00008907090E10B5994000280BDA03071B0F9B
:10CF1000083B9C080C4BA400E318DC6994430C43C9
:10CF2000DC6107E08408094BA400E41823689343FC
:10CF30000B432360C106C90E0120884004490860E4
:10CF40000449086010BD000000ED00E000E400E0CE
:10CF500080E200E000E100E0F8B506460F46007907
:10CF60001C2148431A4915464418E07E002801D088
:10CF70000820F8BD39463046FEF7A4FD65603869E3
:10CF8000206028460025002813D0FF223068397F12
:10CF90001D328550FF2230684532855003233068AA
:10CFA0001B020C4AC01842603068000B40B2FFF709
:10CFB000A3FF052230680421120280180160E57584
:10CFC0002576A5750121E1762846A576F8BD0000F5
:10CFD000B826002080000200F8B503791C246343C2
:10CFE000134C81251C19032766680023AD003F02FE
:10CFF000002E02D00668F619B560E67D002E0ED030
:10D00000237E002B07D06168002902D00068C01978
:10D0100045601120F8BD21610123227604E0E2750C
:10D020000025E1606576257600F01AF8F8BD00006D
:10D03000B826002070B5044600791C21074D4843EE
:10D040004019807E002808D1204600F09DFA207902
:10D050001C22012150434019817670BDB826002062
:10D06000F8B5044600791C21484326494518A87E96
:10D07000184302D1204600F087FA6868002808D0DB
:10D08000812103222068890012028018416000205B
:10D09000F8BDFF204530216800220A50FF212531CC
:10D0A000206800F033F90646FF210931206800F0BE
:10D0B0002DF90090FF214531206800F027F907463F
:10D0C000009838433043E9D03046384307D12946E9
:10D0D000206800F0EDF9E87D697E8842DED8002006
:10D0E000E875002E01D00320F8BD002F01D00F20DD
:10D0F000F8BDA97E01200029216801D00860C6E79B
:10D100004860C4E7B826002070B505460C46007993
:10D110001C21484308494318284600F055F80028C8
:10D1200001D0112070BD9A7500209C60988228461D
:10D1300000F004F870BD0000B8260020F8B50446E1
:10D1400000791C2148431F4900264518FF27206805
:10D150001D37C6512068012181602946206800F0F2
:10D16000E9FD6968002913D027E0FF270137FF2177
:10D170001D31206800F0CAF8002802D1A88AB84200
:10D18000F5D1A88AB84203D02946206800F0D2FD24
:10D19000A88AA97D8842E8D3A98AC81FF9380ED089
:10D1A000FF271D373946206800F0B0F80028F9D075
:10D1B00020680121C1600020A8753046F8BD0F2607
:10D1C000F9E70000B826002000791C2148430349F4
:10D1D0004018807D002800D001207047B82600202C
:10D1E00070B552000A439900049D0A432902059E26
:10D1F0000A43310405240A4324078000072100194B
:10D2000009024018026070BD1CB500220B46009256
:10D2100011460192FFF7E4FF1CBD052212078000B2
:10D2200080180722032112028018016070471CB584
:10D23000002100910B46012201911146FFF7D0FF1A
:10D240001CBD05221207800082180720000210185A
:10D25000026803231B049A430260026809040A431C
:10D260000260704705221207800082180720000222
:10D270001018026803231B049A4302600268090421
:10D280000A43026070470000012181400148C160EB
:10D290007047000000050050012181400148816075
:10D2A0007047000000050050012282400348002919
:10D2B00001D082607047C2607047000000050050D6
:10D2C00038B5084B05241B68009324026B464118AF
:10D2D00005E085005D592D192D69401C20C2814251
:10D2E000F7D838BD4CE20100024940180021016026
:10D2F00070470000006000400349401800680128A2
:10D3000000D0002070470000006000404058002816
:10D3100000D00120704703221202801840680840A4
:10D3200000D001207047000070B515460E4600245D
:10D3300005E0305DFEF772FB0028FAD1641CAC42B8
:10D34000F7D30020044902E0325C0A54401CA84292
:10D35000FAD3FFF7C5F870BDC023002010B5002830
:10D3600009D0032806D10220FEF7E4FF002801D0EF
:10D37000FEF7F0F910BD00F00DFB10BD70B50446CE
:10D38000314D0088AE8888B03A2838D00DDC0228AC
:10D3900039D0102813D011281AD0132822D10023F5
:10D3A0001A46852130467FDF26E051282FD05228AB
:10D3B0001DD0552816D1A088132176DF1CE0072048
:10D3C000FEF7B8FF002801D0FEF7C4F9A08808E0F6
:10D3D0000020FEF7AFFF002801D0FEF7BBF90020C8
:10D3E000C043A88008B070BDFEF7B4F9FAE7002387
:10D3F0001A4619463046A9DF0028F5D1F2E7A08881
:10D40000132176DFF8E7A088002167DFF4E7102218
:10D41000A11D04A8FDF790FE6846017C0029E1D01B
:10D42000007E042803D0062801D00528DAD102297D
:10D4300008D0012069460870FF2083308880A088CA
:10D44000A8DFD9E70220F5E7E81F002010B5007833
:10D45000002807D104483B21808876DF002801D0CE
:10D46000FEF778F910BD0000E81F002070B5012418
:10D470000B49600408600B49401088600949403935
:10D480008860094D6C602F20FFF7DAFCAC60074D17
:10D4900000242F20AC60FFF7D3FCAC7070BD0000FF
:10D4A00080E100E040130140001001405C200020BA
:10D4B00030B5FF220523CD7D002409321B02C3189D
:10D4C000002D8450986905D04B7ECA68D054487EA0
:10D4D000401C487630BD70B500240546601C90B0F5
:10D4E0000007000F08A9103008940870601C00079E
:10D4F000000F103048708878F9263040801C887002
:10D500001C2101A8FDF731FE694608791021084366
:10D5100069460871029408A804940594079406903B
:10D52000287808A98871032069468884112000940E
:10D53000087048708878F7213040801C0840EF213F
:10D540000840012630436946887014210AA8FDF777
:10D550000CFE09A80A9068460B9069460E861420B6
:10D560004C8688862B4668880C330AAA01A9A2DF5C
:10D5700010B070BD1FB501246B461C70197201926A
:10D5800006C8684690471FBDFF2325330268002167
:10D59000D150FF2302680933D15000680121016096
:10D5A0007047000070B5324C324D207B405DFFF774
:10D5B00073FE607B2E46093E805DFFF765FE02200C
:10D5C000FFF724FC207B405DFFF75EFE607B805D03
:10D5D000FFF762FE207C405DFFF75EFE607C805DB1
:10D5E000FFF752FE0220FFF711FC207C405DFFF7A1
:10D5F0004BFE607C805DFFF74FFE2034A078405DDD
:10D60000FFF74AFEE078805DFFF73EFE0220FFF75D
:10D61000FDFBA078405DFFF737FEE078805DFFF707
:10D620003BFEA07A405DFFF737FEE07A805DFFF7B2
:10D630002BFE0220FFF7EAFBA07A405DFFF724FEF5
:10D64000E07A805DFFF728FEA07B405DFFF724FEB7
:10D65000E07B805DFFF718FE0220FFF7D7FBA07B81
:10D66000405DFFF711FEE07B805DFFF715FE70BDAA
:10D670004024002000E2010010B50446FDF734FF0D
:10D6800000280CD0A007C00E002C0ADA2107090FD1
:10D6900008398908144A89008918C96906E01348BD
:10D6A00010BDA108124A890089180968C1400806FE
:10D6B000800F042811D200280FD002280DD00D4968
:10D6C0004B68E206D20E01209040002B08D0620980
:10D6D00092008B5803438B5004E00448401C10BD5B
:10D6E00005490860002010BD00ED00E001200000A9
:10D6F00000E400E09020002000E100E0FFB50746D4
:10D70000806A81B0144600283DD00025384620307C
:10D71000009033E00C20B96A68430E18B088801C72
:10D72000FE2802D90C2005B0F0BD22880299401CC9
:10D73000885420881622401C80B2208002990A5406
:10D740002088401C80B2208002994118308800F067
:10D750005FFC2188401880B22080B288002A0AD05D
:10D76000B16800290FD0029BC018FDF7E5FC2088A6
:10D77000B188401820806D1C0098EDB2007BA84253
:10D78000C8D80020CFE70720CDE7000070B50446D9
:10D790001248134D018A2182818A61820078002813
:10D7A00018D06879002815D100F0F0FC002811D0BD
:10D7B00028462030E06002200849207204202031F1
:10D7C000C870064800212030FEF7BEF9002804D1B9
:10D7D000052000E00320A870002070BD7424002004
:10D7E0001820002070B5044611480426018B2182C0
:10D7F000818B618200780F4D002816D0687900284F
:10D8000013D100F0C3FC00280FD028462030E06080
:10D8100002202072064800212030C670FEF794F9DD
:10D82000002804D10620A87000E0AE70002070BD72
:10D830007424002018200020F0B50021BDB00D4652
:10D840000E4606AA02910346CB40DB07DB0F8C0095
:10D850001351491C1929F6DB002081005158012978
:10D860001AD14A494300C95C012904D0022907D0D2
:10D8700003290AD010E0AB001FA9C8506D1C0BE0B3
:10D88000B30029A9C850761C06E002998B0033A981
:10D89000C8500299491C0291401C1928DDDB0D205B
:10D8A000FFF7FAFC00273A4C0AE0B9001FA84058DD
:10D8B0004100364808184078005DFFF7E5FC7F1C02
:10D8C000AF42F2DB0220FFF7A1FA00270AE0B9001D
:10D8D0001FA8405841002D4808184078005DFFF708
:10D8E000DBFC7F1CAF42F2DB0D20FFF7CDFC0E20EE
:10D8F000FFF7D2FC002729AD09E0B8002858410005
:10D90000224808184078005DFFF7BEFC7F1CB74234
:10D91000F3DB0220FFF77AFA00271C4D09E0B9007B
:10D9200029A84058400040194078005DFFF7B4FC3A
:10D930007F1CB742F3DB0E20FFF7A6FC0F20FFF79A
:10D94000ABFC002633AF08E0B00038584000401967
:10D950004078005DFFF798FC761C02988642F3DB66
:10D960000220FFF753FA002608E0B00038584000C4
:10D9700040194078005DFFF787FC761C02988642CC
:10D98000F3DB0F20FFF780FC3DB0F0BD402400200A
:10D99000F7E1010010B50020FEF7CCFC002801D013
:10D9A000FDF7D8FEFEF746FC002801D0FDF7D2FEB9
:10D9B0003CDF002801D0FDF7CDFE10BD002803D0CC
:10D9C0000249C860002070470E2070479820002050
:10D9D0001CB5034901910091694660DF1CBD000040
:10D9E000E81F002070B50E46054614461421104667
:10D9F000FDF7BBFB012000212080216121732672ED
:10DA00006572002D00D0A072002070BD10B5FDF72A
:10DA100093FE10BDF8B5002903D08C070025002C1B
:10DA200001D00720F8BD0E4E0E4FB16072807360BA
:10DA300039680124214003D00A49254680310C6011
:10DA4000094910DF002803D0002DEBD03C60F8BD61
:10DA50003470FFF731FA1620FFF70EFEF8BD000014
:10DA60009820002000E100E00DDA01000148007874
:10DA7000704700009820002010B50548002283213F
:10DA80000068FDF7F1FE002801D0FDF763FE10BD30
:10DA9000A4E1010070B5324C324D207B405DFFF7B0
:10DAA000FBFB607B2E46093E805DFFF7EDFB02200D
:10DAB000FFF7ACF9207B405DFFF7E6FB607B805D04
:10DAC000FFF7EAFB207C405DFFF7E6FB607C805DB2
:10DAD000FFF7DAFB0220FFF799F9207C405DFFF7A2
:10DAE000D3FB607C805DFFF7D7FB20342078405D5E
:10DAF000FFF7D2FB6078805DFFF7C6FB0220FFF7DF
:10DB000085F92078405DFFF7BFFB6078805DFFF707
:10DB1000C3FB2079405DFFF7BFFB6079805DFFF7B5
:10DB2000B3FB0220FFF772F92079405DFFF7ACFBF1
:10DB30006079805DFFF7B0FB207B405DFFF7ACFBB9
:10DB4000607B805DFFF7A0FB0220FFF75FF9207B81
:10DB5000405DFFF799FB607B805DFFF79DFB70BD2B
:10DB60004024002000E20100FEB51F4C0025A768FC
:10DB7000606802906846FEF7C5FD0190FEF70EFF53
:10DB800006460198002822D000230098616817E01B
:10DB90000E680A46864202D9301A086012E0801BDD
:10DBA000F31800261660D668D169B446002E07D057
:10DBB000FE183602360A566066469660D5611546EE
:10DBC0000029E5D128466160FEF73EFF06E02846C1
:10DBD000FEF73AFF002801D1002E02D00298FEF78E
:10DBE000C1FC0020E070FEBD5C2000200120024945
:10DBF000000508607047000000E200E010B50E4B21
:10DC00005968002906D002680C68A24204D8A21AFA
:10DC10000A60C161586010BD0B4604E00B46C9693B
:10DC2000121B002904D00C689442F7D3A41A0C608C
:10DC30000260C161D86110BD5C2000207CB50D463A
:10DC40000646002469460C706846FDF707FF01A8E8
:10DC500000F016FA00280DD00570466068460849A5
:10DC60000079487068460078FDF716FFFFF7BEFFA1
:10DC700020467CBD684604240078FDF70DFFF7E7D9
:10DC80006C200020F8B51D4D6C68002C34D01C4869
:10DC900000274068A968401A0602360A2068B04288
:10DCA00018D8361AC7192246107CE46900280FD00C
:10DCB00000201074EB68002B07D0916950699847D9
:10DCC000002805D0FDF746FD02E0516990698847BC
:10DCD000002CE3D129786878814206D1401CC0B27B
:10DCE0006870022801D10020687004490006800D88
:10DCF00018310F50FFF77AFFF8BD00005C200020BC
:10DD00000015014010B5094C0949227808461C3815
:10DD1000521CFEF7C3F9012161700021217008280F
:10DD200003D0002801D0FDF715FD10BDE81F00202D
:10DD3000AC230020FF221D32002383508B8A8A6887
:10DD4000D25C8B8A5B1C8B82052109024018C26160
:10DD5000704770B58EB005461C216846FDF705FA80
:10DD6000694608780C21084369460870002401942C
:10DD70000394049405940694287808A988700220D6
:10DD800069460884601C0007000F1030079408776C
:10DD900011204877887FF9210840F721801C08402E
:10DDA000EF2108400126304369468877142109A8ED
:10DDB000FDF7DBF908A8099007A80A9069468E8547
:10DDC0001420CC85088668882B1D09AAA2DF0EB016
:10DDD00070BD1FB500226B461A70197281680191DF
:10DDE000827506C8684690471FBD000038B50178A7
:10DDF000002908D0012901D0022903D140680090F0
:10DE0000FDF78AFD38BD0C48FDF794FD0A4C0B4D1B
:10DE1000A41E6078002807D0FFF72EFE0020607057
:10DE20002070A078287038BD2078401CC0B22070C7
:10DE3000A178295438BD0000EA1F0020AC2300203F
:10DE40007CB50178264D002934D001290CD0022957
:10DE50002DD16A461170C068691C01900122C81D4D
:10DE6000FFF7BAF8684630E0406801781D48FDF7D2
:10DE70009EFC01261B4C002803D069460E700190C1
:10DE800006E0A068E168814205D00020694608707C
:10DE9000084669688847A068E168081AA18888422E
:10DEA00006D80F490122491CC81DFFF795F87CBD13
:10DEB000AE707CBD0B480A491030FDF75BFC0028B2
:10DEC00006D00320694608706846696888477CBDAB
:10DED0000349012208460830FFF716F97CBD00000F
:10DEE0007C200020D4260020F0B50C46012185B00E
:10DEF00005464902FFF70FFA032109026F180026B1
:10DF0000002826D0FF2125312846FFF7FFF90028F9
:10DF10001FD0FF2025302E5081208000B860A07EC9
:10DF2000002801D1012068600221684601700920A3
:10DF3000C0012918086808600390E17D68460172F5
:10DF4000E0680190E675267606CC6846083C904766
:10DF50002DE004212846FFF7DEF9002827D0FF2115
:10DF600009312846FFF7D2F9002820D0214628465B
:10DF7000FFF79EFAE07D617E884218D1207E00285E
:10DF800007D0617EE268E0752069E06026766676FB
:10DF90000AE0A07E002801D1012068608120800075
:10DFA000B860E675617EE2682046FFF7E3FAFF2776
:10DFB0001D3739462846FFF7A9F900280FD0A08A57
:10DFC000A17D884204D221462846FFF7B3FE06E031
:10DFD000EE51A17D002902D02046FFF7FAFEFF276F
:10DFE000453739462846FFF791F900280ED0EE5103
:10DFF000A07E002801D001202860E07D002805D007
:10E00000E675617EE2682046FFF7B4FA05B0F0BD20
:10E010000870000A487002207047000038B51549A2
:10E02000154A488890420FD04A78144C521CD2B2FC
:10E030004A70237B934208D3091D75DF002803D063
:10E04000A169002900D0884738BD00254D70217C8A
:10E05000002907D03B2176DF002803D0A1690029E1
:10E0600000D0884761690029EED06846057088476E
:10E0700038BD000048200020FFFF0000402600209F
:10E0800010B509494B788C785A1CD2B2944200D111
:10E0900000220C78944201D1002010BD0270486823
:10E0A00018214B43C01810BD6C200020FFB583B071
:10E0B00016460C9D0D9C1F46022200950194039864
:10E0C00000F00CF8002807D13B461022314600959D
:10E0D0000194039800F002F807B0F0BDFFB583B0DB
:10E0E000074600200C9C8646268805463AE078685C
:10E0F000A90042181188684681805188C180002299
:10E10000694601A865DF002839D16846017805987D
:10E11000814226D17046002801D0002200E0022270
:10E120002088891842180D998A4227D871460029FB
:10E130000AD1401C80B22080069A0499115420888C
:10E14000401C208001208646218806980A186946CE
:10E1500001A865DF002812D1694620880978401897
:10E1600020806D1C3888A842C1DC704600280AD087
:10E170002088801B401E80B2FF2802D90C2007B0E7
:10E18000F0BD069988550020F9E7000004480179A0
:10E19000002902D1007B002800D001207047000038
:10E1A00038200020B02000200010020716000000D8
:10E1B00015000000080000000A0000000000000038
:10E1C00000E0D7011516171811121314D4230020DC
:10E1D000F4230020202400201100030059C2010074
:10E1E0001200030059C201001300030059C20100CC
:10E1F0001400030059C201000405060708090A0BB0
:10E200000C0D0E0F010201020103030303030201BF
:10E2100002030201010101010302030203010402DE
:10E220000503040506070802090309010807060596
:10E230000403070106020000202600209ECADC24F9
:10E240000EE5A9E093F3A3B50000406E0000005076
:10E25000FFFFFFFFFFFFFFFFFFFFFFFFFFFFFFFFCE
:10E26000000000000000000000E0D70103000000F3
:10E2700090E20100E81F0020C8000000CAB40100BD
:10E2800058E30100B0200020B00E0000DAB4010015
:10E2900000010000FFFF010002000000000000007C
:10E2A000000000000000000000000000000000006E
:10E2B000000000000000000000000000000000005E
:10E2C000000000000000000000000000000000004E
:10E2D000000000000000000000000000000000003E
:10E2E000E0250020000000000026002000000000C3
:10E2F000000000000000000000000000000000001E
:10E30000000000000000000000000000000000000D
:10E3100000000000000000000000000000000000FD
:10E32000000000000000000000000000002000408D
:10E3300000000000000000000000000000000000DD
:10E3400000000000000000000000000000000000CD
:08E35000000000000024F400AD
:040000050001B0C185
:00000001FF
